:020000040800F2
:1000000090220020BD1A0008510600086FA30008C6
:1000100053060008570600085B06000800000000B1
:100020000000000000000000000000005F06000863
:10003000D11A000800000000BBA2000871050008EA
:10004000D71A0008D71A0008D71A0008D71A0008CC
:10005000D71A0008D71A0008D50A0008E70A0008CE
:10006000F90A00080B0B00081D0B0008D71A00083E
:10007000D71A0008D71A0008D71A0008D71A00089C
:10008000D71A0008D71A0008D71A0008D71A00088C
:10009000D71A0008D71A0008D71A00082F0B000833
:1000A000D71A0008D71A0008D71A0008D71A00086C
:1000B000D71A0008D71A0008D71A0008D71A00085C
:1000C000D71A0008D71A0008D71A0008D71A00084C
:1000D000D71A00082B0D00085D0D0008D71A00087C
:1000E0005D0B0008D71A0008D71A0008D71A0008B5
:1000F000D71A0008D71A0008D71A0008D71A00081C
:10010000D71A0008D71A0008D71A0008D71A00080B
:10011000D71A0008D71A0008D71A0008D71A0008FB
:10012000D71A0008D71A0008D71A0008D71A0008EB
:10013000D71A0008D71A0008D71A0008D71A0008DB
:10014000D71A0008D71A0008D71A0008D71A0008CB
:10015000D71A0008D71A0008D71A00088F0D000810
:10016000D71A0008D71A0008D71A0008D71A0008AB
:10017000D71A0008D71A0008D71A00080000000094
:10018000D71A0008D71A000800F002F800F0B2F8F9
:100190000AA090E8000C82448344AAF10107DA45E2
:1001A00001D100F0A7F8AFF2090EBAE80F0013F082
:1001B000010F18BFFB1A43F001031847343B01003D
:1001C000543B01000A444FF0000C10F8013B13F0BF
:1001D000070408BF10F8014B1D1108BF10F8015BA0
:1001E000641E05D010F8016B641E01F8016BF9D193
:1001F00013F0080F1EBF10F8014BAD1C0C1B09D1EA
:100200006D1E58BF01F801CBFAD505E014F8016B5B
:1002100001F8016B6D1EF9D59142D6D370470000ED
:100220000023002400250026103A28BF78C1FBD8FF
:10023000520728BF30C148BF0B6070476E290FF0CE
:10024000AF87702910F0F980662911F0D0836529F5
:1002500011F0CD83672911F0CA83612911F0C98398
:1002600003681B0A28BF41F0800169290FF05C87F1
:1002700064290FF0598775290FF056876F2910F000
:100280008680782910F0C580E92910F02180E429C2
:1002900010F01E80F52910F01B80EF2910F08380EC
:1002A000F82910F0C4800368DB0928BF41F0800101
:1002B000632910F00986732910F00E86E32910F0E7
:1002C0001986F32910F01E86002070471FB511F023
:1002D00089FB10F0AFFE04000020002111F056FB56
:1002E000401C60600020002111F066FBE0601FBD33
:1002F00010B510BD10F079FE1146FFF7E7FF05F0CD
:1003000095FE10F057FF03B4FFF7F2FF03BC10F0A7
:100310005BFF000010B5002107200AF067FA0021FA
:1003200007200AF076FA10BD10B50446294809F0F6
:100330006CFD10BD10B50446274800680A302649F8
:100340000860084600680A280DD1002107200AF03D
:100350004DFA002107200AF05CFA01201F490870BD
:100360001FA008F02AF81C4800686E280FD300214F
:1003700007200AF03BFA012107200AF04AFA002080
:1003800016490870144908601AA008F016F810BD44
:100390001CB50024062064210023AFF26702CDE9DA
:1003A000001019A10B4809F0CBFC322002218B026E
:1003B0000022CDE90010AFF28F0116A009F08AFAF1
:1003C00004460CB901201CBD204609F02DFA00207E
:1003D000F9E7000044020020000000200400002093
:1003E0005B6C65645F73746174652020204F4E20E0
:1003F0005D0A00005B6C65645F7374617465202046
:10040000204F46465D0A000074696D65725F746531
:10041000737400006C65640086B0142101A80FF0AD
:10042000B2FD01F03DF906E00EA007F0C6FF4FF463
:100430007A7009F0A6FB01F0ACF90028F4D10FA006
:1004400007F0BBFF01F03FFA0BE001A801F021FA31
:1004500020B901A90BA007F0B0FF00200A2009F085
:1004600090FBF2E75468697320697320612065721C
:10047000726F72207175657374650A004F4B210AA3
:100480000000000044617461207265636576652038
:100490007375636365737366756C6C793A20257345
:1004A0000A00000000BFFEE710B592B000BF0020B8
:1004B00000905D48006840F080505B490860084645
:1004C000006800F08050009000BF00BF00BF002017
:1004D00000905648006840F480405449086008463F
:1004E000006800F48040009000BF00BF022006902A
:1004F0000120099010200A9002200C9000210D91FB
:1005000008210E91A8210F9102211091042111912F
:1005100006A802F0B5FB18B1322145A0FFF7C2FFD3
:100520000F20019002200290002003904FF4A05071
:1005300004904FF480500590052101A802F0F9FDC8
:1005400018B140213AA0FFF7ADFF02F00AFF4FF4C7
:100550007A71B0FBF1F4204601F03AFC042001F07E
:1005600037FD00221146501E01F0BCFB12B010BD39
:1005700010B507F01DFB01F010FB05F0E0FC07F0E3
:100580002EFB10BD70B5044602F0EBFE6421B0FBFB
:10059000F1F5284601F01CFC00222146501E01F016
:1005A000A1FB002070BD01B5009809F0EAFA08BD72
:1005B0007047704710B5032001F082FB00221146FE
:1005C0006FF00B0001F08EFB002211466FF00A0065
:1005D00001F088FB002211466FF0090001F082FB58
:1005E00000221146501F01F07DFB00221146101F12
:1005F00001F078FB00220F21901E01F073FB002216
:100600000F21501E01F06EFB10BD10B5FFF74CFF1F
:1006100001F087FA0A490B4808F0B0F805F0BEFC73
:1006200009A007F03FFF10BD4038024000700040B5
:10063000647269766572735C626F6172642E6300C6
:1006400000000220902200207561727431000000C9
:10065000704700BFFEE700BFFEE700BFFEE7704740
:1006600008B500BF00200090F948006840F0010084
:10067000F74908600846006800F00100009000BFDC
:1006800000BF08BD08B500BF00200090F04800681A
:1006900040F00200EE4908600846006800F00200E1
:1006A000009000BF00BF08BD08B500BF002000904B
:1006B000E748006840F00400E54908600846006823
:1006C00000F00400009000BF00BF08BD08B500BFE7
:1006D00000200090DE48006840F00800DC49086017
:1006E0000846006800F00800009000BF00BF08BD89
:1006F00008B500BF00200090D548006840F0100009
:10070000D34908600846006800F01000009000BF60
:1007100000BF08BD0146652907D2CE4A02EB011091
:100720000268521C12B9002000E0002070472DE939
:10073000F04107460D461646E8B2FFF7EBFF0446C8
:100740000CB9BDE8F081F2B2A38999B2A06802F0B9
:100750004EFA00BFF5E72DE9F04107460D460026A9
:10076000E8B2FFF7D7FF044614B93046BDE8F08180
:10077000A28991B2A06802F032FA06463046F5E747
:10078000F0B585B007460E461446F0B2FFF7C2FF3B
:1007900005460DB905B0F0BD68688047E86800906F
:1007A00001200190002002900320039024B9012031
:1007B00001900020029019E0012C03D1002001904B
:1007C000029013E0022C04D100200190012002903D
:1007D0000CE0032C04D1002001900220029005E0DF
:1007E000042C03D111200190002002906946A868D2
:1007F00002F06EF800BFCDE70246002106E00120BE
:100800008840904201D108467047491C2029F6DBF8
:100810004FF0FF30F8E72DE9F05F83460D461646AE
:100820001F46DDF828804FF0FF34E8B2FFF772FF73
:100830008146B9F1000F02D10620BDE8F09FD9F83A
:100840000C00FFF7D9FF0446002C01DB102C01D36C
:100850000620F2E709F01AFD824604EB44007E49C7
:1008600031F92000A84219D104EB440001EB8000CB
:100870004068B84212D104EB440001EB800040888C
:10088000B0420BD104EB440001EB8000806840458E
:1008900004D1504609F0FEFC0020CEE704EB4400F2
:1008A0006D4931F92000401C20B1504609F0F2FC9E
:1008B0000720C2E728B204EB4401674A22F821006E
:1008C00004EB4400114601EB8000476004EB440157
:1008D00002EB81014E8004EB4400114601EB8000E5
:1008E000C0F80880504609F0D5FC0020A5E72DE9A6
:1008F000F04180460D464FF0FF34E8B2FFF70AFFA3
:10090000064616B90620BDE8F081F068FFF774FFCF
:100910000446002C01DB102C01D30620F3E709F07C
:10092000B5FC074604EB44004B4931F92000401C5C
:1009300020B9384609F0AEFC0020E4E74FF0FF3064
:1009400004EB4401444A22F82100002004EB440156
:1009500002EB8101486004EB440102EB8101488015
:1009600004EB440102EB81018860384609F092FCF7
:100970000020C8E72DE9F04F85B0894617464FF0B3
:10098000FF3609F0FF00FFF7C5FE04461CB906203C
:1009900005B0BDE8F08F012F4BD1E068FFF72CFFC9
:1009A0000646002E01DB102E01D30620F0E709F0E9
:1009B0006DFC834606EB4600274931F92000401CB8
:1009C00020B9584609F066FC0620E1E7234800EB11
:1009D000860560688047E068009000200290032050
:1009E000039006EB46001C4901EB8000408820B1D3
:1009F000012805D0022809D105E01948019005E039
:100A00001848019002E01848019000BF00BF6946F5
:100A1000A06801F05DFF95F902000022052101F0B8
:100A200061F995F9020001F09BF9584609F032FC92
:100A30002AE03FBBD4F80CA05046FFF7DDFE80460D
:100A4000B8F1000F02DBB8F1100F0FD3002010E057
:100A500030380240F8190108080000204820010839
:100A60000000111000002110000031104A4800EB76
:100A7000880005460DB906208AE795F9020001F0C5
:100A80007CF901E0062083E7002081E710B5002211
:100A9000424943A009F040FE0446204610BD70B50F
:100AA00005462846FFF7A8FE044604EB44003D49EE
:100AB00001EB8000406858B104EB44020B4603EBA5
:100AC0008202906804EB440203EB8202516888477B
:100AD00000BF70BD10B507F06BF8012002F0A9F857
:100AE00007F07DF810BD10B507F062F8022002F0A3
:100AF000A0F807F074F810BD10B507F059F80420FD
:100B000002F097F807F06BF810BD10B507F050F839
:100B1000082002F08EF807F062F810BD10B507F05B
:100B200047F8102002F085F807F059F810BD10B50D
:100B300007F03EF8202002F07CF8402002F079F81F
:100B4000802002F076F84FF4807002F072F84FF4D3
:100B5000007002F06EF807F042F810BD10B507F013
:100B600027F84FF4806002F064F84FF4006002F060
:100B700060F84FF4805002F05CF84FF4005002F03F
:100B800058F84FF4804002F054F84FF4004002F05F
:100B900050F807F024F810BD48200108882001080B
:100BA00070696E000800002070B506460D4626B933
:100BB0002E22FC49FCA007F003FD25B92F22F9499C
:100BC000FEA007F0FDFCF46B286860600021A161C5
:100BD0000C2161610021E161287900F00F000828F3
:100BE00002D0092807D102E00021A16006E04FF4FD
:100BF0008051A16002E00021A16000BF00BF287900
:100C0000C0F3011010B1012807D102E00021E1601A
:100C100006E04FF40051E16002E00021E16000BF16
:100C200000BF2879C0F3811020B1012805D0022827
:100C30000BD106E0002121610AE04FF4C06121617F
:100C400006E04FF48061216102E00021216100BFD4
:100C500000BF204604F03DF908B1012070BD00201E
:100C6000FCE72DE9F04105460E46174625B96D22F1
:100C7000D649CDA007F0A4FCEC6B102E13D0112E9A
:100C800025D194F9400000F01F0201219140D04A83
:100C9000430942F8231000BF2068C06820F02000FC
:100CA0002168C86013E094F9400000F01F020121A0
:100CB00091404209920002F1E022C2F8001100BF07
:100CC0002068C06840F020002168C86000BF00BFF5
:100CD0000020BDE8F08170B504460E4624B9872295
:100CE000BC49B1A007F06CFCE56B00BF2868006848
:100CF000C0F3C0100028F9D028684660012070BDFC
:100D000070B5044624B99422B349A7A007F058FC53
:100D1000E56B4FF0FF3628680068C0F3401010B153
:100D200028684068C6B2304670BD10B5AB4C06F0BE
:100D30003FFF20680068C0F3401060B12068C068C1
:100D400000F0200038B10121A5480AF037FA6FF011
:100D500020002168086006F042FF10BD10B5A14CCC
:100D600006F026FF20680068C0F3401060B12068DC
:100D7000C06800F0200038B101219B480AF01EFA3B
:100D80006FF020002168086006F029FF10BD10B543
:100D9000964C06F00DFF20680068C0F3401060B16B
:100DA0002068C06800F0200038B1012190480AF0A6
:100DB00005FA6FF020002168086006F010FF10BDF2
:100DC00010B586B004468B492068884231D100BFF7
:100DD000002000908848006840F0100086490860B4
:100DE0000846006800F01000009000BF00BF00BF80
:100DF0000020009080481438006840F001007E49CF
:100E0000143908600846006800F00100009000BF37
:100E100000BF4FF4C06001900220029001200390B7
:100E2000032004900720059001A9744801F050FDAB
:100E30006AE073492068884232D100BF00200090E8
:100E40006D48001F006840F400306B49091F0860BE
:100E50000846006800F40030009000BF00BF00BFEB
:100E60000020009064481438006840F00100624996
:100E7000143908600846006800F00100009000BFC7
:100E800000BF0C200190022002900120039003205B
:100E900004900720059001A9584801F019FD33E09E
:100EA0005849206888422FD100BF00200090524846
:100EB000006840F02000504908600846006800F0D3
:100EC0002000009000BF00BF00BF002000904A48F3
:100ED0001438006840F00400474914390860084697
:100EE000006800F00400009000BF00BFC020019027
:100EF0000220029001200390032004900820059016
:100F000001A9414801F0E4FC06B010BD10B504464B
:100F10003849206888420BD13748006820F010001B
:100F2000354908604FF4C061344801F0BAFD1EE055
:100F30003349206888420CD12F48001F006820F4F4
:100F400000302D49091F08600C212C4801F0A9FD33
:100F50000DE02C492068884209D12748006820F01C
:100F6000200025490860C021274801F09AFD10BDE6
:100F70001CB5264903C9CDE90001184C1D48206065
:100F8000252084F840002248154908640846DDE918
:100F90000012C0E91112234640F203121DA10AF00B
:100FA000E4F83BE0B420010873657269616C2021AC
:100FB0003D2052545F4E554C4C0000006366672044
:100FC000213D2052545F4E554C4C0000C220010878
:100FD00080E100E0CE200108D72001087002002047
:100FE000B4020020080300204C030020A0030020CE
:100FF000E403002000100140443802400000024099
:10100000004400400014014000080240E0200108B4
:10101000A02001087561727431000000144C15485D
:101020002060262084F840001348144908640846CC
:10103000DDE90012C0E91112234640F2031210A1AB
:101040000AF093F8104C11482060472084F84000C3
:1010500009480F4908640846DDE90012C0E9111289
:10106000234640F203120BA10AF07FF800201CBDBA
:101070000803002000440040A02001084C03002089
:101080007561727432000000A0030020001401405A
:10109000E4030020756172743600000030B597B02B
:1010A00005460C460195207800F0080010B100209C
:1010B000029002E04FF482700290207800F040002D
:1010C00018B14FF40041039101E0002103916078D1
:1010D000082802D10021049108E06078102802D18C
:1010E000C101049102E0082017B030BD207800F063
:1010F000010010B10121069101E000210691207844
:1011000000F0020010B10221059101E000210591DB
:10111000207800F0200018B14FF40071079102E030
:101120004FF40071079102F02AF96168B1EB500F9A
:1011300002D30021089137E002F021F96168B1EB98
:10114000900F02D3082108912EE002F018F961688F
:10115000B1EBD00F02D31021089125E002F00FF976
:101160006168B1EB101F02D3182108911CE002F056
:1011700006F96168B1EB501F02D32021089113E0FA
:1011800002F0FDF86168B1EB901F02D328210891AD
:101190000AE002F0F4F86168B1EBD01F02D330210D
:1011A000089101E038210891207800F0040010B186
:1011B0000021099101E08021099100210A910B9100
:1011C00007210C9100208DF8550001A802F0A5F927
:1011D00008B1082088E70198006840F040000199B4
:1011E0000860002080E71CB5034600200190FF2026
:1011F000009011B90AB901201CBD01B901A902B9B9
:101200006A4600BF18688068C0F340000028F9D023
:1012100000BF58684078082803D110781C68E06047
:1012200002E010881C68E06000BF00BF186880689A
:1012300000F001000028F9D000BF58684078082865
:1012400003D11868C068087002E01868C068088098
:1012500000BF0020D0E72DE9F05F05460C4625B918
:10126000CB22DC49DCA007F0ABF9286C20B9CC22FA
:10127000D849DEA007F0A4F9286CC06B20B9CD22B4
:10128000D449E0A007F09CF9286CC66BD5F83CB0B7
:10129000207C00F0010020B10021DBF8000009F003
:1012A000B8FA2768D4F80480D4F808901FE03A46CA
:1012B00041463046FFF797FF8246B8F1000F07D04E
:1012C00070684078082801D1012000E002208044A5
:1012D0003FB170684078082801D1012000E0022069
:1012E0000744BAF1000F00D004E0A9F10109B9F1F7
:1012F000000FDCD100BF00BF30688068C0F3C010B1
:101300000028F9D1207CC0F3400020B10121DBF896
:10131000000009F07EFAA068A0EB0900BDE8F09F8C
:1013200070B504460D46206CC66B75602946306862
:10133000FFF7B4FE70BD2DE9F04104460F46BC48EE
:10134000844202D1BB4DBC4E0FE0BC48844202D166
:10135000BB4DBC4E09E0BC48844202D1BB4DBC4EE3
:1013600003E04FF0FF30BDE8F0813460EE63B94A2E
:10137000394628460AF0E2F8F5E72DE9F04105463E
:101380000E4617464C2007F05FFA8046B8F1000F72
:1013900005D14FF49072B049B0A007F011F90420C4
:1013A00007F052FA04462CB94FF49172AA49B1A041
:1013B00007F006F925600021284609F017FA0121F7
:1013C000284609F026FA23463246394640460AF0B6
:1013D000CEF8BDE8F08110B50024ABA19448FFF72A
:1013E000AAFF0446204610BD10B586B004469049B9
:1013F0002068884247D100BF00200090A4480068C0
:1014000040F48050A24908600846006800F480500B
:10141000009000BF00BF00BF002000909C4814381F
:10142000006840F001009A491439086008460068D5
:1014300000F00100009000BF00BFE02001900220FA
:10144000029000200390032004900520059001A93C
:10145000904801F03DFA0C200190012002900020FC
:1014600003900320049001A98A4801F031FA10206A
:1014700001900020029003900320049001A9854868
:1014800001F026FA6EE06D492068884233D100BF32
:10149000002000907E48001F006840F480407C4996
:1014A000091F08600846006800F48040009000BFF3
:1014B00000BF00BF0020009075481438006840F05D
:1014C00002007349143908600846006800F0020001
:1014D000009000BF00BF4FF46040019002200290D6
:1014E00000200390032004900520059001A96A487C
:1014F00001F0EEF936E054492068884232D100BF4D
:10150000002000906248001F006840F400406049DD
:10151000091F08600846006800F40040009000BF02
:1015200000BF00BF0020009059481438006840F008
:1015300004005749143908600846006800F00400A8
:10154000009000BF00BF4FF4E050019002200290D5
:1015500000200390032004900620059001A94F4825
:1015600001F0B6F906B010BD10B504463049206848
:1015700088420AD14648006820F4805044490860F7
:10158000E021444801F08DFA22E02C49206888428D
:101590000DD13F48001F006820F480403C49091FDE
:1015A00008604FF460413C4801F07BFA10E02649A6
:1015B000206888420CD13648001F006820F40040A3
:1015C0003349091F08604FF4E051344801F069FACB
:1015D00010BD0000F0200108646576696365202174
:1015E0003D2052545F4E554C4C00000064657669B6
:1015F00063652D3E62757320213D2052545F4E5528
:101600004C4C00006465766963652D3E6275732DF0
:101610003E706172656E742E757365725F6461747D
:101620006120213D2052545F4E554C4C000000007B
:101630000030014038040020C8000020003800407D
:10164000A4040020D0000020003C00401005002031
:10165000D8000020E8200108F82001087370695FB5
:1016600064657669636520213D2052545F4E554C78
:101670004C00000063735F70696E20213D2052545E
:101680005F4E554C4C000000737069310000000043
:1016900044380240000002400004024000080240BA
:1016A00010B5B748B74908604FF482704860002110
:1016B000B4488160C160016141614FF40071816192
:1016C0001021C16100210162416281620A21C1626F
:1016D00001F023FFAB480068006840F04000A949D2
:1016E0000968086010BD3EB505460C460194FF2010
:1016F000012302AA01A90090284602F0ACF808B123
:10170000FF2002909DF808003EBD2DE9F0410546FE
:101710000E461746002208219B4801F068FA294628
:101720009848FFF7E0FF8046002406E0FF21954837
:10173000FFF7D9FF3055601CC4B2BC42F6DB012272
:101740000821914801F053FA4046BDE8F0812DE9A7
:10175000F04105460C461646002208218A4801F051
:1017600046FA29468748FFF7BEFF8046002706E075
:1017700014F8011B8348FFF7B6FF781CC7B2B742C5
:10178000F6DB01220821804801F031FA4046BDE82D
:10179000F0811CB57DA103C9CDE900010522694690
:1017A0003020FFF7D4FF052269461020FFF7ADFF78
:1017B000002406E01DF80400A52800D003E0601C0A
:1017C000C4B2052CF6DB00BF052C01D001201CBDE6
:1017D0000020FCE770B504460D46002208216A4847
:1017E00001F005FA21466748FFF77DFF06462946C6
:1017F0006448FFF778FF01220821634801F0F7F9F8
:10180000304670BD70B50446002208215E4801F0E4
:10181000EEF921465B48FFF766FFFF215948FFF7C5
:1018200062FF054601220821574801F0E0F92846E9
:1018300070BD70B5054600220421534801F0D7F968
:1018400020222946A020FFF782FF012204214E48D2
:1018500001F0CDF900BF10214B4801F0C0F900287C
:10186000F9D10720FFF7CEFF044621462720FFF7D6
:10187000B1FF04F0100028B1FF21E120FFF7AAFF1B
:10188000102070BD04F0200008B12020F9E7FF20EF
:10189000F7E770B504460720FFF7B4FF0546294671
:1018A0002720FFF797FF05F0400050B12022214686
:1018B0006120FFF72AFFFF21E220FFF78BFF0020C6
:1018C00070BD0120FCE710B5002204212E4801F074
:1018D0008EF90F212020FFF77DFF01212120FFF746
:1018E00079FF01212220FFF775FF28212520FFF72E
:1018F00071FF0F212620FFF76DFF20213120FFF718
:1019000069FF052223492A20FFF721FF0122042134
:101910001D4801F06CF90120FEF745FE10BD10B521
:1019200000220421184801F062F905221A493020EA
:10193000FFF70DFF052217492A20FFF708FF0121B5
:101940002120FFF747FF01212220FFF743FFFF215E
:101950002420FFF73FFF28212520FFF73BFF0F2121
:101960002620FFF737FF0E212020FFF733FF01224B
:101970000421054801F03BF90120FEF714FE10BDDB
:10198000003001407C05002000000240A5A5A5A56F
:10199000A500000019210108142101083F48006832
:1019A00040F470003D4908603D48006840F0010087
:1019B0003B49086000203A4908310860384800680F
:1019C00038490840364908603748091D0860081F33
:1019D000006820F48020091F0860002030490C3185
:1019E00008604FF000602D4980390860704770B57D
:1019F00000200022022300240221294D08352D68F1
:101A000005F00C0020B1042806D0082834D107E0E6
:101A1000264D274E356033E0264D254E35602FE0AC
:101A20001F4D2D1D2D68C5F380541D4D2D1D2D6896
:101A300005F03F0154B11F4DB5FBF1F5184E361DB1
:101A40003668C6F3881605FB06F209E0174DB5FBAC
:101A5000F1F5134E361D3668C6F3881605FB06F2FF
:101A60000F4D2D1D2D68C5F301456D1C6B00B2FB9C
:101A7000F3F50F4E356003E00C4D0D4E356000BFA1
:101A800000BF074D08352D68C5F303150A4E705D7C
:101A9000074D2D68C540064E356070BD88ED00E0ED
:101AA00000380240FFFFF6FE103000240024F4004E
:101AB000E000002080F0FA021E210108094880475A
:101AC00009480047FEE7FEE7FEE7FEE7FEE7FEE720
:101AD000FEE7FEE7FEE7FEE704480549054A064B38
:101AE000704700009D19000889010008901C002023
:101AF00090220020901E0020901E0020704770B59C
:101B000004465F4800684FF47A71B0FBF1F528464F
:101B100000F05EF900222146501E00F0E3F800209C
:101B200070BD10B55748006840F400705549086012
:101B30000846006840F4806008600846006840F489
:101B400080700860032000F0BBF80F20FEF71AFD3C
:101B5000FEF730FD002010BD704710B54FF0FF308C
:101B60004949086000200860401E091D08600020E7
:101B70000860401E44491039086000200860401E7B
:101B8000091D086000200860401E091D0860002033
:101B90000860FFF7E1FF002010BD3C480068401CD2
:101BA0003A490860704739480068704731B5FFF717
:101BB000FAFF0546009C601C00B1641C00BFFFF7E3
:101BC000F2FF401BA042FAD338BD4FF0E02000697D
:101BD00020F002004FF0E021086170474FF0E02054
:101BE000006940F002004FF0E0210861704728488A
:101BF000704728480068000C704726480068C0F30A
:101C00000B0070472348406840F0010021494860BC
:101C100070472048406820F001001E494860704726
:101C20001C48406840F002001A4948607047194853
:101C3000406820F002001749486070471548406826
:101C400040F004001349486070471248406820F093
:101C5000040010494860704701200F490860704730
:101C600000200D49086070470C49096801600B4964
:101C7000091D096841600949083109688160704798
:101C8000E0000020003C024020380240E400002038
:101C900000020701002004E000042742107AFF1F21
:101CA00010B5002807DA0A07140ED94A00F00F030E
:101CB0001B1FD45403E00A07130ED64A135410BD59
:101CC00000BF00F00702D24B0C3B19684FF6FF0330
:101CD0001940D14B0B4343EA0221CD4B0C3B196019
:101CE00000BF70472DE9F05F80460D46164600277D
:101CF00000F087F9074639462A46334601F00700C7
:101D0000C0F1070ABAF1040F02D94FF0040A01E04A
:101D1000C0F1070AD14600F1040ABAF1070F02D256
:101D20004FF0000A01E0A0F1030AD4464FF0010A87
:101D30000AFA09FAAAF1010A0AEA020A0AFA0CFAEC
:101D40004FF0010B0BFA0CFBABF1010B0BEA030B91
:101D50004AEA0B0421464046FFF7A2FFBDE8F09F88
:101D600000BF00F01F02012191404209920002F1E0
:101D7000E022C2F8001100BF704700BF00F01F0250
:101D800001219140A54A430942F8231000BF704742
:101D900000BF00BF00BF00BF00BFBFF34F8F00BF39
:101DA00000BF00BF9A480C38006800F4E0609A4910
:101DB0000843001D96490C39086000BF00BF00BFF2
:101DC000BFF34F8F00BF00BF00BF00BF00BFFDE7E4
:101DD00070B504462546681EB0F1807F01D301200E
:101DE0000FE0681E4FF0E02148610F214FF0FF30F7
:101DF000FFF756FF00204FF0E021886107200861BF
:101E0000002070BD00BF00BF00BFBFF35F8F00BFE9
:101E100000BF00BF7E480C30006820F480307C4951
:101E20000C31086000207A497C310860704740F02E
:101E30000101774A7C32116075490C31096841F41F
:101E40008031734A0C32116000BF00BF00BFBFF386
:101E50004F8F00BF00BF00BF00BF00BF00BFBFF378
:101E60006F8F00BF00BF00BF70474178684A803263
:101E700011600178F9B1121D41681160017B0907F9
:101E8000C27A41EA0261827A41EAC241427B41EA76
:101E90008241827B41EA4241C27B41EA0241427A6D
:101EA00041EA0221027A41EA420102781143584A8A
:101EB0008832116005E00021554A84321160121DFC
:101EC0001160704710B500F09CF810BD2DE9F0438B
:101ED00004462046002808DA4D4F00F00F0CACF104
:101EE000040C17F80C703F0902E04A4F3F5C3F09B1
:101EF0003D460E4606F00700C0F10708B8F1040F92
:101F000002D94FF0040801E0C0F10708C44600F10F
:101F10000408B8F1070F02D24FF0000801E0A0F169
:101F20000308474625FA07F84FF0010909FA0CF9AA
:101F3000A9F1010908EA0908C2F800804FF0010878
:101F400008FA07F8A8F1010808EA0508C3F80080B4
:101F500000BFBDE8F08300BF00F01F0201219140E7
:101F60002E4A8032430942F8231000BF704710B553
:101F700001460846294A8032430952F8232000F0DE
:101F80001F040123A3401A400AB1012200E00022ED
:101F9000104610BD00BF00F01F0201219140204AF1
:101FA000430942F8231000BF704710B501460846A8
:101FB0001B4A8032430952F8232000F01F040123FA
:101FC000A3401A400AB1012200E00022104610BDD1
:101FD000042808D14FF0E021096941F004014FF0D5
:101FE000E022116107E04FF0E021096921F00401CE
:101FF0004FF0E02211617047704710B5FFF7FCFF0A
:1020000010BD03480C380068C0F302207047000080
:1020100018ED00E000E400E00000FA0580E100E0D7
:1020200080E200E00146087810381823B0FBF3F294
:10203000FB48805CC865032A05D908686FF309006E
:10204000001D886503E008686FF309008865886DE6
:102050007047014600208A6A8B69CBB932B1012AE8
:102060000DD0022A03D0032A10D10EE000BFCB6AA4
:1020700003F08073B3F1807F00D1012007E0CB6AC9
:10208000B3F1C07F00D1012001E000E000BF34E0E7
:102090008B69B3F5005F1AD132B1012A07D0022A49
:1020A00003D0032A11D10AE000BF01200EE0CB6A61
:1020B00003F08073B3F1807F00D1012006E0CB6A8A
:1020C000B3F1C07F00D1012000E000BF15E032B1C4
:1020D000012A05D0022A04D0032A0CD103E000BF54
:1020E00000BF012008E0CB6A03F08073B3F1807F6A
:1020F00000D1012000E000BF00BF70472DE9F04192
:1021000004460025FFF74FFD074614B90120BDE83E
:10211000F081606A00B100BF00BF002084F8340085
:1021200000BF022084F835002068006820F001001C
:10213000216808600AE0FFF736FDC01B052805D9B5
:1021400020206065032084F83500E0E720680068FF
:1021500000F001000028EED120680568B148054074
:10216000D4E901010843E168084321690843616932
:102170000843A1690843E1690843216A084305430C
:10218000606A042803D1D4E90B01084305432068A1
:1021900005602068456925F00705606A0543606AA7
:1021A00004280DD1A06A0543E06A48B12046FFF734
:1021B00050FF28B140206065012084F83500A6E773
:1021C000206845612046FFF72DFF064694F85C1015
:1021D0003F208840B06000206065012084F8350011
:1021E000002094E770B504460CB9012070BD94F846
:1021F0003500022800D1F9E72068006820F00100CE
:102200002168086000202168086021684860216812
:1022100088602168C86021680861212021684861C0
:102220002046FFF7FFFE054694F85C103F208840EB
:10223000A8600020606584F8350000BF84F8340091
:1022400000BF00BFD2E730B50468246824F48024BE
:1022500005682C60046863608468402C04D10468BD
:10226000A2600468E16003E00468A1600468E260C1
:1022700030BD2DE9F04104460D4616461F464FF08D
:10228000000800BF94F83400012802D10220BDE804
:10229000F081012084F8340000BF94F83500012853
:1022A00011D1022084F83500002060653B4632469B
:1022B00029462046FFF7C7FF2068006840F001006C
:1022C0002168086006E000BF002084F8340000BFE9
:1022D0004FF002084046DAE72DE9F04704460D4684
:1022E00016461F464FF00008D4F8589000BF94F8E7
:1022F0003400012802D10220BDE8F087012084F8D3
:10230000340000BF94F8350001282BD1022084F856
:102310003500002060653B46324629462046FFF7DF
:1023200092FF94F85C103F208840C9F808002068AC
:10233000006840F01600216808602068406940F09D
:10234000800021684861206C28B12068006840F056
:102350000800216808602068006840F001002168DA
:10236000086006E000BF002084F8340000BF4FF092
:1023700002084046C0E770B50446A56DFFF713FCA0
:10238000064694F83500022808D08020606500BF1A
:10239000002084F8340000BF012070BD2068006870
:1023A00020F01600216808602068406920F0800055
:1023B00021684861206C08B9A06C28B120680068C9
:1023C00020F00800216808602068006820F0010003
:1023D000216808600FE0FFF7E6FB801B05280AD99B
:1023E0002020606500BF002084F8340000BF032077
:1023F00084F83500D1E72068006800F0010000286B
:10240000E9D194F85C103F208840A86000BF00200C
:1024100084F8340000BF012084F835000020BCE7B8
:10242000362101083F8010F0014691F8350002285E
:1024300003D08020486501207047052081F83500D1
:102440000868006820F001000A6810600020F3E7C7
:102450002DE9F05F0446884617464FF0000AFFF763
:10246000A2FB834694F83500022809D080206065DD
:1024700000BF002084F8340000BF0120BDE8F09FB9
:102480002068006800F4807020B14FF480706065AF
:102490000120F3E7B8F1000F05D194F85C1020207B
:1024A00000FA01F904E094F85C10102000FA01F938
:1024B000A56D2E6842E0781C90B12FB1FFF773FB39
:1024C000A0EB0B00B8420BD92020606500BF0020B4
:1024D00084F8340000BF012084F835000320CDE7E4
:1024E0002E6894F85C1008208840304040B1606D40
:1024F00040F00100606594F85C1008208840A860F6
:1025000094F85C1001208840304040B1606D40F08C
:102510000200606594F85C1001208840A86094F87F
:102520005C1004208840304040B1606D40F00400F1
:10253000606594F85C1004208840A86006EA0900F1
:1025400020B9606D00F001000028B4D0606DA0B12A
:10255000606D00F0010080B12046FFF70CFF94F899
:102560005C1030208840A86000BF002084F8340050
:1025700000BF012084F8350080E7B8F1000F0DD1CD
:1025800094F85C1030208840A86000BF002084F8D8
:10259000340000BF012084F8350004E094F85C109A
:1025A00010208840A860504668E7F8B5044600202F
:1025B0000090C64800684FF41651B0FBF1F7A56DC6
:1025C0002E6894F85C1008208840304098B120684C
:1025D000006800F0040070B12068006820F004007A
:1025E0002168086094F85C1008208840A860606D3D
:1025F00040F00100606594F85C1001208840304094
:1026000068B12068406900F0800040B194F85C1027
:1026100001208840A860606D40F00200606594F879
:102620005C1004208840304068B12068006800F0E9
:10263000020040B194F85C1004208840A860606DEE
:1026400040F00400606594F85C1010208840304031
:1026500078B32068006800F0080050B394F85C106C
:1026600010208840A8602068006800F4802080B1B5
:102670002068006800F4002028B9206CC8B120460A
:10268000216C884715E0A06C98B12046A16C884762
:102690000FE02068006800F4807028B920680068A6
:1026A00020F0080021680860206C10B12046216CE1
:1026B000884794F85C10202088403040002865D07E
:1026C0002068006800F0100000285FD094F85C10CB
:1026D00020208840A86094F83500052828D120687B
:1026E000006820F01600216808602068406920F02A
:1026F000800021684861206C08B9A06C28B120686E
:10270000006820F008002168086094F85C103F2001
:102710008840A86000BF002084F8340000BF01207A
:1027200084F83500206D10B12046216D8847F8BD32
:102730002068006800F4802080B12068006800F400
:10274000002028B9606C10B12046616C88471DE0FC
:10275000E06BD8B12046E16B884717E0206800683D
:1027600000F4807068B92068006820F010002168CB
:10277000086000BF002084F8340000BF012084F806
:102780003500E06B10B12046E16B8847606D38B3CF
:10279000606D00F00100F0B1052084F8350020687C
:1027A000006820F001002168086000BF0098401C0C
:1027B0000090B84200D905E02068006800F00100F0
:1027C0000028F3D100BF00BF002084F8340000BF10
:1027D000012084F83500E06C10B12046E16C884798
:1027E00000BFA4E710B50346002400BF93F83400EF
:1027F000012801D1022010BD012083F8340000BF60
:1028000093F83500012814D1062910D2DFE801F031
:10281000030507090B0DDA630AE01A6408E05A643D
:1028200006E09A6404E0DA6402E01A6500E000BFA2
:1028300000E0012400BF002083F8340000BF2046E0
:10284000D9E70246002300BF92F83400012801D1E5
:1028500002207047012082F8340000BF92F8350052
:10286000012824D107291FD2DFE801F004070A0D4F
:10287000101316000020D06318E00020106415E04B
:102880000020506412E0002090640FE00020D0642B
:102890000CE00020106509E00020D0631064506453
:1028A0009064D064106501E0012300BF00E00123C3
:1028B00000BF002082F8340000BF1846C9E7014677
:1028C00091F8350070470146486D7047E0000020E0
:1028D000F8B502460B460025002400200021DCE06C
:1028E000012606FA01F51E6806EA0504AC4273D11A
:1028F0005E68022E02D05E68122E13D1CF0802F15C
:10290000200656F827004E07F70E0F26BE40B043AC
:102910004F07FF0E1E69BE403043CF0802F120066C
:1029200046F8270010684F000326BE40B0431E79CA
:1029300006F003064F00BE40304310605E68012E73
:1029400008D05E68022E05D05E68112E02D05E6847
:10295000122E13D190684F000326BE40B0434F00A3
:10296000DE68BE4030439060506801268E40B04320
:102970001E79C6F300168E4030435060D0684F0079
:102980000326BE40B0434F009E68BE403043D06037
:102990005E6806F08056B6F1805F7DD100BF0026EC
:1029A0000096AB4E366846F48046A94F3E603E46E0
:1029B000366806F48046009600BF00BFA54E8F081B
:1029C00056F827008E07370F0F26BE40B043A24EA1
:1029D000B24202D1002624E05EE0A04EB24201D114
:1029E00001261EE09E4EB24201D1022619E09D4E04
:1029F000B24201D1032614E09B4EB24201D104261B
:102A00000FE09A4EB24201D105260AE0984EB2423A
:102A100001D1062605E0974EB24201D1072600E01B
:102A200008268F073F0FBE4030438A4E8F0846F876
:102A30002700914E3068A0435E6806F48036B6F5F4
:102A4000803F00D120438C4E3060361D3068A0435B
:102A50005E6806F40036B6F5003F00D12043864E8E
:102A6000361D3060361D3068A0435E6806F480165F
:102A7000B6F5801F00D120437F4E08363060361DEA
:102A80003068A0435E6806F40016B6F5001F00D15A
:102A90002043794E0C363060491C1029FFF420AFDA
:102AA000F8BDF0B50C46002500220023002192E07D
:102AB000012606FA01F504EA0502AA427ED106685B
:102AC0004FEA410C032707FA0CF7BE430660CF0814
:102AD00000F1200656F827604F074FEAD76C0F2702
:102AE00007FA0CF7BE434FEAD10C00F1200747F874
:102AF0002C6086684FEA410C032707FA0CF7BE43A7
:102B00008660466801278F40BE434660C6684FEA2C
:102B1000410C032707FA0CF7BE43C6604D4E8F08E1
:102B200056F827308E07370F0F26BE4033404A4EE7
:102B3000B04201D1002623E0484EB04201D1012627
:102B40001EE0474EB04201D1022619E0454EB04288
:102B500001D1032614E0444EB04201D104260FE017
:102B6000424EB04201D105260AE0414EB04201D1A9
:102B7000062605E03F4EB04201D1072600E00826B8
:102B80008F073F0FBE409E4224D18E07370F0F267E
:102B900006FA07F32F4E8F0856F827609E432D4FF5
:102BA0004FEA910C47F82C60334E36689643324F0B
:102BB0003E603E1D366896433F1D00E00AE03E60E1
:102BC0003E1D366896433F1D3E603E1D3668964367
:102BD0003F1D3E60491C1029FFF46AAFF0BD02465C
:102BE00013690B400BB1012000E0002070470AB1CF
:102BF000816101E00B048361704742694A40426190
:102C0000704708B502464FF48030009000980843A2
:102C100000900098D061D1610098D061D069009097
:102C2000D06900F4803008B1002008BD0120FCE725
:102C3000704710B50446104814300068204028B191
:102C40000D48143004602046FDF729FF10BD000038
:102C500044380240083801400000024000040240AD
:102C600000080240000C0240001002400014024024
:102C700000180240001C0240003C01400020704748
:102C800038B504460CB9012038BD207800F00100A9
:102C9000002874D0F848006800F00C0004280DD01B
:102CA000F548006800F00C00082813D1F248001F16
:102CB000006800F48000B0F5800F0BD1EE480838B2
:102CC0000068C0F34040002859D06068002856D101
:102CD0000120D9E700BF6068B0F5803F08D1E64821
:102CE0000838006840F48030E349083908601EE085
:102CF0006068B0F5A02F0DD1DF480838006840F4B7
:102D00008020DD49083908600846006840F48030BA
:102D100008600CE0D8480838006820F48030D649B4
:102D2000083908600846006820F48020086000BF69
:102D3000606890B1FEF737FF054606E0FEF733FF07
:102D4000401B642801D903209EE7CB48083800685F
:102D5000C0F340400028F1D011E0FEF724FF054603
:102D600006E0FEF720FF401B642801D903208BE713
:102D7000C14808380068C0F340400028F1D12078ED
:102D800000F0020002285FD1BB48006800F00C0090
:102D900058B1B948006800F00C0008281CD1B648AA
:102DA000001F006800F48000B0B9B348083800681C
:102DB000C0F3400020B1E068012801D0012063E7A2
:102DC000AD480838006820F0F800216940EAC100E9
:102DD000A9490839086037E0E06800B30120A74935
:102DE0000860FEF7E0FE054606E0FEF7DCFE401B4D
:102DF000022801D9032047E79F4808380068C0F33C
:102E000040000028F1D09C480838006820F0F80005
:102E1000216940EAC10098490839086014E000209F
:102E200096490860FEF7BFFE054606E0FEF7BBFECA
:102E3000401B022801D9032026E78F480838006884
:102E4000C0F340000028F1D1207800F008000828E5
:102E50002CD16069A8B1012089490860FEF7A3FE62
:102E6000054606E0FEF79FFE401B022801D903201D
:102E70000AE781486C300068C0F340000028F1D0B8
:102E800014E000207E490860FEF78DFE054606E04E
:102E9000FEF789FE401B022801D90320F4E676489C
:102EA0006C300068C0F340000028F1D1207800F0B9
:102EB000040004287FD100BF002000906E48383005
:102EC000006840F080506C4938310860084600685E
:102ED00000F08050009000BF00BF6A48006840F4D6
:102EE000807068490860FEF75EFE054606E0FEF762
:102EF0005AFE401B022801D90320C5E6614800683C
:102F000000F480700028F2D000BFA068012808D12A
:102F100059486830006840F001005749683108603E
:102F20001DE0A06805280DD153486830006840F0C6
:102F300004005149683108600846006840F001000B
:102F400008600CE04C486830006820F001004A49F5
:102F5000683108600846006820F00400086000BF7F
:102F6000A068A0B1FEF71FFE054608E0FEF71BFEB5
:102F7000401B41F28831884201D9032084E63E4853
:102F800068300068C0F340000028EFD013E0FEF77F
:102F90000AFE054608E0FEF706FE401B41F28831B6
:102FA000884201D903206FE6334868300068C0F3D7
:102FB00040000028EFD1A069B8B32F48006800F0A6
:102FC0000C00082860D0A06902283ED100202B49BF
:102FD0000866FEF7E8FD054606E0FEF7E4FD401B47
:102FE000022801D903204FE6234808380068C0F3BF
:102FF00040600028F1D1D4E907010843616A40EA42
:1030000081110122A06AC2EB500041EA00412C204C
:10301000005D41EA00601849091F08600120174956
:103020000866FEF7C0FD054607E02FE0FEF7BBFD92
:10303000401B022801D9032026E60F480838006803
:10304000C0F340600028F1D020E000200B49086662
:10305000FEF7A9FD054606E0FEF7A5FD401B022888
:1030600001D9032010E6044808380068C0F3406026
:103070000028F1D10AE007E008380240000047428A
:10308000800E4742007000400120FDE50020FBE576
:103090002DE9F047002400250026A146FB480068E2
:1030A00000F00C0020B1042805D008283AD105E032
:1030B000DFF8DC9339E0DFF8DC9336E0F348001FFB
:1030C000006800F03F04F148001F006800F4800031
:1030D00078B1F048ED49091F0968C1F38811A0FBD8
:1030E000017001462246002338460CF042FD054699
:1030F0000EE0E748E549091F0968C1F38811A0FB04
:10310000017001462246002338460CF032FD054688
:10311000DE48001F0068C0F30140401C4600B5FBBC
:10312000F6F902E0DFF8689300BF00BF4846BDE84B
:10313000F08770B504460D460CB9012070BDD64825
:10314000006800F00F00A84209D2D3490D7008466C
:10315000006800F00F00A84201D00120EEE72078BF
:1031600000F0020002281DD1207800F0040004289D
:1031700005D1C648006840F4E050C4490860207892
:1031800000F00800082805D1C048006840F46040FD
:10319000BE490860BD48006820F0F000A1680843FF
:1031A000BA490860207800F00100A8B360680128DF
:1031B00007D1B64808380068C0F34040B8B90120CC
:1031C000BCE76068022802D06068032807D1AF48D6
:1031D00008380068C0F3406048B90120AEE7AB484A
:1031E00008380068C0F3400008B90120A6E7A748E6
:1031F000006820F0030061680843A4490860FEF7F6
:10320000D2FC064609E0FEF7CEFC801B41F2883175
:10321000884202D9032091E707E09C48006800F04B
:103220000C006168B0EB810FEDD19B48006800F0A5
:103230000F00A84209D998490D700846006800F0AF
:103240000F00A84201D0012078E7207800F00400A8
:10325000042807D18D48006820F4E050E168084355
:103260008A490860207800F00800082808D18748BB
:10327000006820F46040216940EAC1008349086089
:10328000FFF706FF81490968C1F30311834A515CC6
:10329000C840834908600F20FDF774F900204DE70E
:1032A00070B586B006460C46154646BB00BF0020EA
:1032B000009076482830006840F0010073492831BA
:1032C00008600846006800F00100009000BF00BFE1
:1032D00088150190022002900320049000200390A2
:1032E000059001A96F48FFF7F3FA6848006820F0DD
:1032F000EC6044EA050108436449086027E000BF28
:103300000020009061482830006840F004005F49C8
:10331000283108600846006800F00400009000BFF3
:1033200000BF481501900220029003200490002065
:103330000390059001A95C48FFF7CAFA534800685A
:1033400020F0784044EAC50108435049086006B0BF
:1033500070BD01205549C864704700205349C864B6
:1033600070474F480068704700B5FFF7FAFF4749BC
:103370000968C1F382214E4A515CC84000BD00B5C6
:10338000FFF7EFFF41490968C1F34231484A515CF8
:10339000C84000BD0F2101603C490839096801F4AB
:1033A0008021B1F5802F03D14FF4A02141600DE0C1
:1033B00036490839096801F48031B1F5803F03D1FD
:1033C0004FF48031416001E0002141602F4908390C
:1033D000096801F0010111B10121C16001E0002182
:1033E000C1602A4908390968C1F3C401016127494C
:1033F0006831096801F00401042902D105218160C6
:103400000AE022496831096801F0010111B1012186
:10341000816001E0002181601C496C31096801F084
:10342000010111B10121416101E000214161174910
:103430000839096801F08071B1F1807F02D1022161
:10344000816101E0012181611049091F096801F4CE
:103450008002C2610D49091F096801F03F02026242
:103460000A49091F0968C1F3881242620749091F06
:10347000096801F4403101F58031CA0B82620349C9
:10348000091F0968C1F30362C2627047083802402D
:103490000024F40080F0FA02003C02401E210108E2
:1034A000E000002000000240000802400000474207
:1034B0002E2101080F220260154A126802F0030251
:1034C0004260134A126802F0F0028260104A1268E9
:1034D00002F4E052C2600E4A126802F46042D2085E
:1034E00002610C4A126802F00F020A6070477047CE
:1034F00010B50748001D006800F08000802805D145
:10350000FFF7F5FF80200249891D087010BD0000FB
:1035100008380240003C0240704710B504460CB920
:10352000012010BD606A00B900BF0021A16294F8BB
:10353000510028B9002084F850002046FDF754FFC0
:10354000022084F851002068006820F040002168C3
:103550000860D4E901010843E16808432169084390
:1035600061690843218B01F400710843E169084354
:10357000216A0843A16A0843216808600421A06900
:1035800001EA1040616A0843216848602068C06908
:1035900020F400602168C86100206065012084F883
:1035A00051000020BDE7704710B504460CB901205A
:1035B00010BD022084F851002068006820F040000F
:1035C000216808602046FDF7CFFF0020606584F881
:1035D000510000BF84F8500000BF00BFE8E72DE9AC
:1035E000F04104460E4617461D46DDF818803FE0C0
:1035F000681CE0B32DB1FEF7D6FAA0EB0800A84294
:1036000036D32068406820F0E00021684860606898
:10361000B0F5827F0DD1A068B0F5004F03D0A0684F
:10362000B0F5806F05D12068006820F04000216867
:103630000860A06AB0F5005F0ED100BF2068006886
:103640004DF6FF710840216808602068006840F46A
:1036500000502168086000BF012084F8510000BFBD
:10366000002084F8500000BF0320BDE8F081FFE790
:10367000206880683040B04201D1012000E0002085
:10368000B842B5D10020F0E7F8B504460D4616461D
:103690002B460022802120460096FFF7A0FF28B18C
:1036A000606D40F0200060650320F8BD0020FCE75D
:1036B0002DE9F84304460D4617461E464FF0000814
:1036C000C14600BF94F85000012802D10220BDE895
:1036D000F883012084F8500000BFFEF764FA8046AA
:1036E00094F85100012802D04FF00209A9E005B179
:1036F00017B94FF00109A4E0032084F8510000201D
:1037000060652563A786E786A063A087E08760647D
:103710002064A068B0F5004F05D12068006840F42F
:103720008040216808602068006800F04000402860
:1037300005D02068006840F0400021680860E0681B
:10374000B0F5006F2AD1606810B1E08E012806D173
:1037500028882168C860AD1CE08E401EE08619E014
:103760002068806800F00200022807D128882168BC
:10377000C860AD1CE08E401EE0860BE03EB1701CC0
:1037800040B1FEF710FAA0EB0800B04202D34FF0B0
:10379000030956E0E08E0028E2D129E0606810B10C
:1037A000E08E012806D12878216808736D1CE08E10
:1037B000401EE08619E02068806800F002000228C0
:1037C00007D12878216808736D1CE08E401EE086C2
:1037D0000BE03EB1701C40B1FEF7E5F9A0EB08002C
:1037E000B04202D34FF003092BE0E08E0028E2D173
:1037F0003346012202212046CDF80080FFF7EFFE7C
:1038000010B14FF003091CE0424631462046FFF755
:103810003BFF20B14FF001092020606511E0A06856
:1038200050B900BF002000902068C0680090206858
:103830008068009000BF00BF606D08B14FF00109C3
:1038400000BF012084F8510000BF002084F8500020
:1038500000BF48463BE72DE9FE4F04460D4616469D
:103860001F46DDF830804FF0000A002002908146AC
:103870004FF0010B019000BF94F85000012802D1D5
:103880000220BDE8FE8F012084F8500000BFFEF743
:103890008AF9814694F851A060680290BAF1010F4C
:1038A0000BD00298B0F5827F04D1A06810B9BAF1AC
:1038B000040F02D002200190D2E00DB106B117B979
:1038C00001200190CCE094F85100012802D105209C
:1038D00084F8510000206065A663E787A787256309
:1038E000E786A786206460642068006800F04000D6
:1038F000402805D02068006840F04000216808603A
:10390000E068B0F5006F43D1606810B1E08E012827
:1039100006D128882168C860AD1CE08E401EE08674
:103920002FE0BBF1000F10D0E08E70B120688068EE
:1039300000F00200022808D128882168C860AD1C68
:10394000E08E401EE0864FF0000BE08F68B12068EB
:10395000806800F0010040B12068C0683080B61C6B
:10396000E08F401EE0874FF0010B08F1010040B1ED
:10397000FEF719F9A0EB0900404502D3032001909E
:103980006EE0E08E0028CCD1E08F0028C9D142E063
:10399000606810B1E08E012806D12878216808738C
:1039A0006D1CE08E401EE0862FE0BBF1000F10D0B2
:1039B000E08E70B12068806800F00200022808D113
:1039C00015F8010B21680873E08E401EE0864FF069
:1039D000000BE08F68B12068806800F0010040B102
:1039E0002068C06806F8010BE08F401EE0874FF0AA
:1039F000010B08F1010040B1FEF7D5F8A0EB09007A
:103A0000404502D3032001902AE0E08E0028CCD16B
:103A1000E08F0028C9D14346012202212046CDF87B
:103A20000090FFF7DCFD10B10320019018E04A463A
:103A300041462046FFF728FE20B1012001902020BA
:103A400060650DE0A06850B900BF002000902068BC
:103A5000C068009020688068009000BF00BF00BF71
:103A6000012084F8510000BF002084F8500000BFFE
:103A7000019806E72DE9F84304460D4617461E4611
:103A80004FF00008C1466068B0F5827F0DD1A06894
:103A900058B9042084F851003B462A46294620465E
:103AA0000096FFF7D8FEBDE8F88300BF94F85000F9
:103AB000012801D10220F6E7012084F8500000BF60
:103AC000FEF771F8804694F85100012802D04FF0BB
:103AD00002097BE005B117B94FF0010976E0042037
:103AE00084F8510000206065A563A787E7872063FD
:103AF000A086E08620646064A068B0F5004F05D120
:103B00002068006820F48040216808602068006810
:103B100000F04000402805D02068006840F04000D8
:103B200021680860E068E8B918E02068806800F063
:103B3000010038B12068007B28706D1CE08F401EAA
:103B4000E0870BE03EB1701C40B1FEF72CF8A0EB13
:103B50000800B04202D34FF0030937E0E08F00289D
:103B6000E3D11CE018E02068806800F0010038B163
:103B70002068C0682880AD1CE08F401EE0870BE005
:103B80003EB1701C40B1FEF70EF8A0EB0800B04249
:103B900002D34FF0030919E0E08F0028E3D16068F9
:103BA000B0F5827F0DD1A068B0F5004F03D0A068BA
:103BB000B0F5806F05D12068006820F040002168D2
:103BC0000860606D08B14FF0010900BF012084F862
:103BD000510000BF002084F8500000BF484662E753
:103BE000704770477CB5044600BFFE480068182146
:103BF000B0FBF1F04FF47A71B0FBF1F0642148436F
:103C00000190FDF7D0FF054600BF0198411E0191CC
:103C100020B9606D40F02000606505E02068806894
:103C200000F002000028F0D000BF2068406820F0BB
:103C3000A000216848602A4664212046FFF724FD41
:103C400018B1606D40F020006065A06850B900BFF9
:103C5000002000902068C068009020688068009074
:103C600000BF00BF012084F85100606D18B12046EC
:103C7000FFF7B7FF02E02046FFF7B2FF7CBD10B5AB
:103C80000446216B481C2063087821680873E08E85
:103C9000401EE086E08E10B92046FFF7A3FF10BD5E
:103CA00010B50446206B00882168C860206B801C1A
:103CB0002063E08E401EE086E08E10B92046FFF7BC
:103CC00091FF10BD30B50346002400BF93F85000AB
:103CD000012801D1022030BD012083F8500000BF2F
:103CE00001B10AB901243EE093F85100012801D046
:103CF000022438E0032083F851000020586519633E
:103D00009A86DA8698639887D8871864D86810B13D
:103D1000B548586401E0B54858649868B0F5004F5C
:103D200005D11868006840F480401D6828609868D4
:103D300030B91868406840F080001D68686005E090
:103D40001868406840F0A0001D6868601868006846
:103D500000F04000402805D01868006840F040009E
:103D60001D68286000BF00BF002083F8500000BF1E
:103D70002046B0E7704738B504462068406820F018
:103D80006000216848606068B0F5827F0DD1A0684E
:103D9000B0F5004F03D0A068B0F5806F05D1206862
:103DA000006820F0400021680860A06850B900BF9A
:103DB000002000902068C068009020688068009013
:103DC00000BF00BF012084F85100606D18B9204683
:103DD000FFF7D0FF02E02046FFF703FF38BD10B524
:103DE00004462068017BA26B501CA0631170E08F19
:103DF000401EE087E08F10B92046FFF7BCFF10BDE2
:103E000010B504462068C068A16B0880A06B801CB8
:103E1000A063E08F401EE087E08F10B92046FFF7D7
:103E2000AAFF10BD70477CB5044600BF6D4800680E
:103E30001821B0FBF1F04FF47A71B0FBF1F064217E
:103E400048430190FDF7AFFE05462068406820F02A
:103E500020002168486000BF0198411E019120B9EF
:103E6000606D40F02000606505E02068806800F02B
:103E700002000028F0D000BF2A4664212046FFF748
:103E800003FC18B1606D40F020006065A06850B977
:103E900000BF002000902068C06800902068806803
:103EA000009000BF00BF606D88B994F851000428ED
:103EB00006D1012084F851002046FFF75BFF0CE09B
:103EC000012084F851002046FFF7ACFF05E00120F7
:103ED00084F851002046FFF784FE7CBD10B50446EF
:103EE000216B481C2063087821680873E08E401E0F
:103EF000E086E08E50B92068406820F0800021689C
:103F00004860E08F10B92046FFF78DFF10BD10B557
:103F100004462068017BA26B501CA0631170E08FE7
:103F2000401EE087E08F50B92068406820F06000B4
:103F300021684860E08E10B92046FFF774FF10BD7D
:103F400010B50446206B00882168C860206B801C77
:103F50002063E08E401EE086E08E50B92068406805
:103F600020F0800021684860E08F10B92046FFF7FC
:103F70005AFF10BD10B504462068C068A16B0880C8
:103F8000A06B801CA063E08F401EE087E08F50B9DB
:103F90002068406820F0400021684860E08E10B939
:103FA0002046FFF740FF10BDF0B50446002500266F
:103FB000002700BF94F85000012801D10220F0BD75
:103FC000012084F8500000BF94F851506668012D1C
:103FD0000ED0B6F5827F03D1A06808B9042D07D0B2
:103FE00002273BE0E0000020A13C00087F3C0008E5
:103FF00009B102B10BB9012730E094F85100012852
:1040000002D1052084F85100002060652163A38659
:10401000E386A263A387E387E06820B1FD482064BC
:10402000FD48606403E0FD482064FD48606420684A
:10403000406840F0E000D4F800C0CCF804002068EC
:10404000006800F04000402807D02068006840F079
:104050004000D4F800C0CCF8000000BF00BF002032
:1040600084F8500000BF3846A9E7F0B504460E4674
:1040700015460027A06868B96068B0F5827F09D14D
:10408000042084F851002B46324631462046FFF783
:104090008BFFF0BD00BF94F85000012801D1022031
:1040A000F7E7012084F8500000BF94F85100012880
:1040B00001D0022733E006B10DB901272FE004201B
:1040C00084F8510000206065A663A587E58720631A
:1040D000A086E0866064E06810B1D248206401E008
:1040E000D1482064A068B0F5004F05D12068006871
:1040F00020F48040216808602068406840F060003B
:10410000216848602068006800F04000402805D021
:104110002068006840F040002168086000BF00BFD0
:10412000002084F8500000BF3846B2E770B505465D
:10413000AC6B2068406820F0030021684860606D27
:1041400040F010006065012084F851002046FFF720
:1041500048FD70BDF8B50546AC6B0026FDF723FDA4
:1041600006462868006800F4807038BB2068406804
:1041700020F0020021684860324664212046FFF7A3
:1041800083FA18B1606D40F020006065A06850B9F6
:1041900000BF002000902068C06800902068806800
:1041A000009000BF00BF0020E086012084F851008D
:1041B000606D18B12046FFF714FDF8BD2046FFF7EB
:1041C0000FFD00BFF9E7704770B50446A56B2846A0
:1041D000FFF7F9FF70BD2DE9F04104460E46154684
:1041E000002700BF94F85000012802D10220BDE84A
:1041F000F081012084F8500000BF94F8510001289C
:1042000001D0022748E006B10DB9012744E00320A0
:1042100084F85100002060652663A586E586A063CA
:1042200060642064A087E087A068B0F5004F05D1E6
:104230002068006840F48040216808607B48A16CD9
:1042400008647B48A16CC8637A48A16CC8640020EC
:10425000A16C0865E38ED4F800C00CF10C02216B50
:10426000A06CFEF739F82068006800F04000402894
:1042700005D02068006840F0400021680860206890
:10428000406840F02000216848602068406840F0A5
:1042900002002168486000BF00BF002084F8500081
:1042A00000BF3846A3E770B50546AC6B28680068C8
:1042B00000F4807010BB2068406820F00300216883
:1042C00048606068B0F5827F0DD1A068B0F5004FFE
:1042D00003D0A068B0F5806F05D12068006820F099
:1042E0004000216808600020E087012084F8510028
:1042F000606D18B12046FFF774FC70BD2046FFF7D3
:1043000039FD00BFF9E7704770B50446A56B284634
:10431000FFF7F9FF70BD70B50546AC6B0026FDF7E1
:1043200042FC06462868006800F48070D8B932461E
:1043300064212046FFF7A8F918B1606D40F0200015
:1043400060652068406820F0030021684860002014
:10435000E086E087012084F85100606D18B12046A6
:10436000FFF73FFC70BD2046FFF75CFD00BFF9E79B
:10437000704770B50446A56B2846FFF7F9FF70BD7E
:104380002DE9F04704460E4617461D464FF000083B
:10439000C146C24600BF94F85000012802D1022055
:1043A000BDE8F087012084F8500000BF94F85180E8
:1043B000D4F80490B8F1010F0AD0B9F5827F04D186
:1043C000A06810B9B8F1040F02D04FF0020A7DE0E6
:1043D0000EB107B115B94FF0010A77E094F851001A
:1043E000012802D1052084F8510000206065266371
:1043F000A586E586A763A587E5872064606494F8B1
:10440000510004281CD10C48E16C08640B48E16C95
:10441000C8631BE0753F0008413F00080F3F0008DC
:10442000DD3E0008013E0008DF3D0008C9410008EC
:10443000554100082D41000809430008A742000823
:10444000FA48E16C0864FA48E16CC863F948E16C29
:10445000C8640020E16C0865E38FD4F800C00CF15B
:104460000C01A26BE06CFDF737FF2068406840F05C
:104470000100216848600020A16C0864A16CC86339
:10448000A16CC864A16C0865E38ED4F800C00CF17F
:104490000C02216BA06CFDF71FFF2068006800F084
:1044A0004000402805D02068006840F040002168A6
:1044B00008602068406840F020002168486020685B
:1044C000406840F002002168486000BF00BF002043
:1044D00084F8500000BF504662E72DE9F0410446E1
:1044E0000E4615460027A06870B96068B0F5827F57
:1044F0000AD1042084F851002B463246314620462A
:10450000FFF73EFFBDE8F08100BF94F8500001289E
:1045100001D10220F6E7012084F8500000BF94F892
:104520005100012801D0022747E006B10DB901274B
:1045300043E0042084F8510000206065A663A5874D
:10454000E58720646064A086E086A068B0F5004F2F
:1045500005D12068006820F4804021680860B648D2
:10456000E16C0864B548E16CC863B248E16CC864AA
:104570000020E16C0865E38FD4F800C00CF10C0159
:10458000A26BE06CFDF7A8FE2068006800F0400018
:10459000402805D02068006840F04000216808608D
:1045A0002068406840F0200021684860206840682A
:1045B00040F001002168486000BF00BF002084F87F
:1045C000500000BF38469DE70CB5002101919C4981
:1045D00009681822B1FBF2F14FF47A72B1FBF2F1E3
:1045E00064225143009100BF00994A1E009221B9F4
:1045F000416D41F02001416505E00168896801F0E5
:1046000002010029F0D000BF0168096821F04001D3
:10461000026811600168496821F0E0010268516098
:104620000168C968019100BF0CBD0168496821F0AB
:10463000E001026851600168096821F040010268E8
:10464000116070471CB504467D4800681821B0FB16
:10465000F1F04FF47A71B0FBF1F06421484301901E
:104660002068406800F0800008B1764860642068E7
:10467000406800F0400008B173482064206840683A
:1046800020F02000216848602068406800F00200A7
:1046900020B92068406800F0010090B3A06CE0B140
:1046A0000020A16C0865A06CFDF765FE20684068DD
:1046B00020F002002168486000BF0198411E01916E
:1046C00020B9606D40F02000606505E020688068DA
:1046D00000F002000028F0D000BFE06C88B100209C
:1046E000E16C0865E06CFDF746FE2068006820F08C
:1046F0004000216808602068406820F001002168BF
:1047000048600020E087E086606500BF0090206878
:10471000C068009020688068009000BF00BF00BFA4
:104720000020009020688068009000BF00BF01203A
:1047300084F8510000201CBD704738B50546AC6BAD
:104740002068006820F04000216808600020E16CCB
:1047500008652068406820F0010021684860A06C6E
:1047600018B1A06C006D00B138BD0020E087E08674
:10477000606500BF00902068C06800902068806875
:10478000009000BF00BF00BF00200090206880683C
:10479000009000BF00BF012084F851002046FFF7C1
:1047A000CBFF00BFE0E77CB505462548006818212F
:1047B000B0FBF1F04FF47A71B0FBF1F064214843A3
:1047C0000190AC6B0020A16C08652068406820F067
:1047D00002002168486000BF0198411E019120B984
:1047E000606D40F02000606505E02068806800F0A2
:1047F00002000028F0D000BFE06C18B1E06C006D42
:1048000000B17CBD0020E087E086606500BF0090BD
:1048100020688068009000BF00BF012084F851002C
:104820002046FFF789FF00BFEBE700007343000855
:10483000174300082D41000809430008A74200085B
:10484000E00000202B460008C945000838B50446A2
:104850002068406800F0800008B1C04860642068AB
:10486000406800F0400008B1BD48206420684068FE
:1048700020F02000216848600125A06C58B1206814
:10488000406800F0020018B1B648A16C086502E06B
:104890000020A16C0865E06C58B12068406800F009
:1048A000010018B1B048E16C086502E00020E16C3D
:1048B00008652068406800F00200D8B120684068B0
:1048C00000F00100B0B1A06C40B1A06CFDF7ACFDF0
:1048D00018B10020A16C086500E00025E06C48B12B
:1048E000E06CFDF7A1FD20B10020E16C0865012519
:1048F00000E000252068406800F0020050B1A06C84
:1049000040B1A06CFDF790FD18B10020A16C0865C6
:1049100000E000252068406800F0010050B1E06C24
:1049200040B1E06CFDF780FD18B10020E16C086536
:1049300000E00025012D1BD10020E087E0866065A6
:1049400000BF00902068C0680090206880680090D8
:1049500000BF00BF00BF002000902068806800906A
:1049600000BF00BF012084F851002046FFF7E4FE9D
:10497000002038BD014600BF91F85000012801D148
:1049800002207047012081F8500000BF086840688D
:1049900020F003000A68506000BF002081F850003A
:1049A00000BF00BFEDE7014600BF91F850000128AD
:1049B00001D102207047012081F8500000BF086833
:1049C000406840F003000A68506000BF002081F892
:1049D000500000BF00BFEDE710B50446A06C10B159
:1049E000A06CFDF7C8FCE06C10B1E06CFDF7C3FCF7
:1049F0002068406820F0030021684860012084F8A6
:104A00005100002010BD70B50546AC6B0020E0875A
:104A1000E0862046FFF7E5F870BDF8B5044620684B
:104A200046682068856805F0400048B905F0010037
:104A300030B106F0400018B12046216C8847F8BD1F
:104A400005F0020030B106F0800018B12046616C1C
:104A50008847F4E705F4B070002876D006F020000F
:104A6000002872D005F04000F0B194F851000328FE
:104A70000ED0606D40F00400606500BF0020009023
:104A80002068C068009020688068009000BF0BE03C
:104A900000BF002000902068C068009020688068F7
:104AA000009000BF00BFCAE705F0200088B1606D2C
:104AB00040F00100606500BF002000902068806821
:104AC00000902068006820F040002168086000BF66
:104AD00000BF05F4807058B1606D40F0080060655B
:104AE00000BF0020009020688068009000BF00BFD9
:104AF000606D20B32068406820F0E00021684860C5
:104B0000012084F8510006F0020010B906F00100FF
:104B1000B8B12068406820F0030021684860E06C6C
:104B200028B11248E16C0865E06CFDF77DFCA06CD3
:104B300028B10E48A16C0865A06CFDF775FC03E078
:104B400003E02046FFF74DF879E700BF77E701461D
:104B500091F8510070470146486D70472B46000898
:104B6000C9450008A74700083B470008074A000856
:104B70002DE9F041044600252068056925F44055DB
:104B8000E0680543206805612068C56849F20C604B
:104B900085432169A068084361690843E1690843C6
:104BA00005432068C5602068456925F44075A06903
:104BB000054320684561E069B0F5004F7ED1FE49AC
:104BC0002068884203D0FD49206888425DD1FEF705
:104BD000D6FB00EBC00101EB001061684900B0FB9F
:104BE000F1F06421B0FBF1F00601FEF7C8FB00EB29
:104BF000C00101EB001061684900B0FBF1F7FEF75E
:104C0000BEFB00EBC00101EB001061684900B0FB86
:104C1000F1F06421B0FBF1F000EBC00101EB0010FA
:104C2000A7EB8000322101EBC0006421B0FBF1F062
:104C300000F0F80006EB4006FEF7A1FB00EBC00118
:104C400001EB001061684900B0FBF1F7FEF797FB3C
:104C500000EBC00101EB001061684900B0FBF1F00E
:104C60006421B0FBF1F000EBC00101EB0010A7EBF9
:104C70008000322101EBC0006421B0FBF1F000F0B4
:104C8000070030442168886020E1FEF76DFB00EBEF
:104C9000C00101EB001061684900B0FBF1F0642134
:104CA000B0FBF1F00601FEF75FFB00EBC00101EB8A
:104CB000001061684900B0FBF1F700E045E0FEF745
:104CC00053FB00EBC00101EB001061684900B0FB31
:104CD000F1F06421B0FBF1F000EBC00101EB00103A
:104CE000A7EB8000322101EBC0006421B0FBF1F0A2
:104CF00000F0F80006EB4006FEF736FB00EBC001C3
:104D000001EB001061684900B0FBF1F7FEF72CFBE6
:104D100000EBC00101EB001061684900B0FBF1F04D
:104D20006421B0FBF1F000EBC00101EB0010A7EB38
:104D30008000322101EBC0006421B0FBF1F000F0F3
:104D40000700304421688860C0E09B4920688842A1
:104D500003D09A49206888425CD1FEF710FB00EB33
:104D6000C00101EB001061688900B0FBF1F6FEF7AD
:104D700006FB00EBC00101EB001061688900B0FB8D
:104D8000F1F06421B0FBF1F000EBC00101EB001089
:104D9000A6EB8000322101EB00106421B0FBF1F0A2
:104DA00000F0F006FEF7EBFA00EBC00101EB00109B
:104DB00061688900B0FBF1F06421B0FBF1F006EB13
:104DC0000016FEF7DCFA00EBC00101EB0010616891
:104DD0008900B0FBF1F7FEF7D2FA00EBC00101EB5E
:104DE000001061688900B0FBF1F06421B0FBF1F0C4
:104DF00000EBC00101EB0010A7EB8000322101EBBA
:104E000000106421B0FBF1F000F00F003044216885
:104E100088605BE0FEF7A8FA00EBC00101EB001030
:104E200061688900B0FBF1F6FEF79EFA00EBC00165
:104E300001EB001061688900B0FBF1F06421B0FB68
:104E4000F1F000EBC00101EB0010A6EB8000322175
:104E500001EB00106421B0FBF1F000F0F006FEF76A
:104E600083FA00EBC00101EB001061688900B0FB20
:104E7000F1F06421B0FBF1F006EB0016FEF774FAD6
:104E800000EBC00101EB001061688900B0FBF1F795
:104E9000FEF76AFA00EBC00101EB001061688900BF
:104EA000B0FBF1F06421B0FBF1F000EBC00101EBCD
:104EB0000010A7EB8000322101EB00106421B0FB51
:104EC000F1F000F00F00304421688860BDE8F08107
:104ED000704710B504460CB9012010BDA06900B19F
:104EE00000E000BF94F8390028B9002084F83800A9
:104EF0002046FBF765FF242084F839002068C0684D
:104F000020F400502168C8602046FFF731FE206879
:104F1000006920F49040216808612068406920F011
:104F20002A00216848612068C06840F40050216868
:104F3000C8600020E063202084F8390084F83A003B
:104F40000020CAE710B504460CB9012010BD94F842
:104F5000390028B9002084F838002046FBF730FFDC
:104F6000242084F839002068C06820F400502168AB
:104F7000C8602046FFF7FCFD2068006920F49040DF
:104F8000216808612068406920F02200216848619A
:104F90002068406940F00800216848612068C068C6
:104FA00040F400502168C8600020E063202084F8AD
:104FB000390084F83A0003E0001001400014014079
:104FC0000020C3E770B504460D460CB9012070BD42
:104FD00094F8390028B9002084F838002046FBF7FF
:104FE000EFFE242084F839002068C06820F40050C7
:104FF0002168C8602046FFF7BBFD2068006920F4E7
:105000000060216808612068406920F02A0021685A
:1050100048612068006940F4804021680861206888
:10502000006920F020002168086120680069284399
:10503000216808612068C06840F400502168C86099
:105040000020E063202084F8390084F83A00002032
:10505000BDE770B504460D4616460CB9012070BD7B
:1050600094F8390028B9002084F838002046FBF76E
:10507000A7FE242084F839002068C06820F400507E
:105080002168C8602046FFF773FD2068006920F49E
:105090009040216808612068406920F02A0021685A
:1050A00048612068006920F00F00216808612068CD
:1050B00000692843216808612068C06820F4006006
:1050C0002168C8602068C06830432168C8602068D3
:1050D000C06840F400502168C8600020E0632020D0
:1050E00084F8390084F83A000020B8E7704710B51A
:1050F00004460CB9012010BD242084F83900204654
:10510000FBF704FF0020E06384F8390084F83A00DC
:1051100000BF84F8380000BF00BFECE72DE9F04184
:1051200004460D4617469846069E21E0701CF8B1CD
:105130002EB1FCF738FDA0EB0800B04218D920686A
:10514000C06820F4D0702168C8602068406920F0F1
:10515000010021684861202084F8390084F83A0071
:1051600000BF002084F8380000BF0320BDE8F081B4
:10517000206800682840A84201D1012000E00020FA
:10518000B842D3D00020F1E72DE9F84304460D469C
:1051900016461F464FF0000994F8390020285CD1CC
:1051A00005B116B90120BDE8F88300BF94F83800B6
:1051B000012801D10220F6E7012084F8380000BF61
:1051C0000020E063212084F83900FCF7ECFC8146E4
:1051D000A684E6842BE0E08C401EE084A068B0F555
:1051E000805F16D14B460022802120460097FFF7B2
:1051F00095FF08B10320D6E7A846B8F80000C0F331
:10520000080021684860206908B9AD1C0FE06D1CDA
:105210000DE04B460022802120460097FFF77EFFDD
:1052200008B10320BFE715F8010B21684860E08C46
:105230000028D0D14B460022402120460097FFF79E
:105240006DFF08B10320AEE7202084F8390000BFCD
:10525000002084F8380000BFA5E70220A3E72DE96D
:10526000F84304460D4616461F464FF0000994F8D1
:105270003A00202860D105B116B90120BDE8F883B5
:1052800000BF94F83800012801D10220F6E7012080
:1052900084F8380000BF0020E063222084F83A0040
:1052A000FCF781FC8146A685E68539E0E08D401E4D
:1052B000E085A068B0F5805F1BD14B46002220211D
:1052C00020460097FFF72AFF08B10320D6E7A8463B
:1052D000206938B920684068C0F30800A8F80000C9
:1052E000AD1C1DE020684068C0B2A8F800006D1C2D
:1052F00016E04B460022202120460097FFF70EFFC4
:1053000008B10320BAE7206920B92068406805F891
:10531000010B05E02068406800F07F0005F8010BF4
:10532000E08D0028C2D1202084F83A0000BF002080
:1053300084F8380000BFA1E702209FE710B50346BC
:1053400093F83900202823D101B10AB9012010BDFA
:1053500000BF93F83800012801D10220F7E70120AF
:1053600083F8380000BF19629A84DA840020D86379
:10537000212083F8390000BF002083F8380000BFE7
:105380001868C06840F080001C68E0600020DEE71C
:105390000220DCE710B5034693F83A00202829D113
:1053A00001B10AB9012010BD00BF93F838000128EF
:1053B00001D10220F7E7012083F8380000BF99628D
:1053C0009A85DA850020D863222083F83A0000BF4E
:1053D000002083F8380000BF1868406940F00100E1
:1053E0001C6860611868C06840F490701C68E060D8
:1053F0000020D8E70220D6E770470168C96821F489
:1054000090710268D1600168496921F00101026868
:105410005161202180F83A1070470168C96821F075
:10542000C0010268D160202180F83910704770B542
:1054300006460025B46B20684069C0F3C01594F897
:105440003900212805D125B10020E0842046FFF74E
:10545000E4FF20684069C0F3801594F83A002228E0
:1054600005D125B10020E0852046FFF7C6FFE06B9F
:1054700040F01000E0632046FFF7BEFF70BD7047AC
:1054800070B50446A56B2846FFF7F9FF70BD70475D
:1054900070B50546AC6B2868006800F4807070B980
:1054A0000020E0842068406920F080002168486185
:1054B0002068C06840F040002168C86002E02046D3
:1054C000FFF7E5FF70BDF7B50446154694F83900BF
:1054D00020283DD1019800B10DB90120FEBD00BFCB
:1054E00094F83800012801D10220F7E7012084F860
:1054F000380000BF01982062A584E5840020E063A5
:10550000212084F83900FA48216BC863F948216BDF
:105510000864F948216BC8640020216B086501AE5E
:1055200023681A1D31682B46206BFCF7D5FE6FF0FF
:1055300040002168086000BF002084F8380000BFE8
:105540002068406940F08000216848610020C5E77C
:105550000220C3E7704770B50446A56B2846FFF7E5
:10556000F9FF70BD704770B50546AC6B28680068E0
:1055700000F48070B0B90020E0852068C06820F495
:1055800080702168C8602068406920F001002168AF
:1055900048612068406920F040002168486120206F
:1055A00084F83A002046FFF7DDFF70BD77B581B083
:1055B0000446154694F83A00202850D1029800B1CC
:1055C00015B9012004B070BD00BF94F8380001285F
:1055D00001D10220F6E7012084F8380000BF0298CC
:1055E000A062A5850020E063222084F83A00C34829
:1055F000616BC863C248616B0864BF48616BC86473
:105600000020616B086502AE32682368191D2B46C5
:10561000606BFCF761FE00BF00200090206800680E
:10562000009020684068009000BF00BF00BF0020CD
:1056300084F8380000BF2068C06840F4807021689A
:10564000C8602068406940F0010021684861206816
:10565000406940F04000216848610020B2E7022024
:10566000B0E70146002200BF91F83800012801D1BF
:1056700002207047012081F8380000BF08684069A7
:10568000C0F3C01291F83900212806D12AB1086868
:10569000406920F080000B68586108684069C0F3D9
:1056A000801291F83A00222812D18AB10868C068A5
:1056B00020F480700B68D8600868406920F0010011
:1056C0000B6858610868406920F040000B68586119
:1056D00000BF002081F8380000BF00BFC9E708B54F
:1056E000014600BF91F83800012801D1022008BD11
:1056F000012081F8380000BF91F83900212805D138
:105700000868406940F080000A68506191F83A00EA
:1057100022281CD100BF002000900868006800907B
:1057200008684068009000BF00BF0868C06840F487
:1057300080700A68D0600868406940F001000A681B
:1057400050610868406940F040000A68506100BF3D
:10575000002081F8380000BF00BFC8E770B50446DC
:10576000002520684069C0F3C01594F8390021284D
:105770000ED16DB12068406920F080002168486139
:10578000206B10B1206BFCF7F6FD2046FFF745FEBD
:1057900020684069C0F3801594F83A0022280ED1A1
:1057A0006DB12068406920F0400021684861606B5D
:1057B00010B1606BFCF7DFFD2046FFF71EFE0020F6
:1057C00070BD10B504462068C06820F4F0702168F0
:1057D000C8602068406920F00100216848612068A5
:1057E000406900F0800068B12068406920F08000C6
:1057F00021684861206B28B10020216B0865206B6F
:10580000FCF7B9FD2068406900F0400068B12068ED
:10581000406920F0400021684861606B28B1002099
:10582000616B0865606BFCF7A6FD0020E084E085F5
:10583000E063202084F83A0084F83900002010BD8D
:1058400010B504462068C06820F0C0002168C86018
:105850002068406900F0800068B12068406920F04D
:10586000800021684861206B28B10020216B086509
:10587000206BFCF780FD0020E084202084F83900B4
:10588000002010BD10B504462068C06820F4907058
:105890002168C8602068406920F0010021684861E3
:1058A0002068406900F0400068B12068406920F03D
:1058B000400021684861606B28B10020616B086579
:1058C000606BFCF758FD0020E085202084F83A004A
:1058D000002010BD704770B50546AC6B0020616BB1
:1058E0000865206B70B1206B006D58B170BD000071
:1058F00091540008815400082F540008675500088F
:10590000575500080020E084E085E063202084F8FB
:10591000390084F83A002046FFF7DCFF00BFE5E7D6
:1059200070B50546AC6B0020216B0865606B18B143
:10593000606B006D00B170BD0020E084E085E06325
:10594000202084F8390084F83A002046FFF7C2FF8F
:1059500000BFF0E770B5044601252068C06820F458
:10596000F0702168C8602068406920F0010021685B
:105970004861206B58B12068406900F0800018B180
:10598000F848216B086502E00020216B0865606B18
:1059900058B12068406900F0400018B1F248616BCE
:1059A000086502E00020616B08652068406900F02E
:1059B000800080B12068406920F080002168486143
:1059C000206B40B1206BFCF72FFD18B10020216B3C
:1059D000086500E000252068406900F0400088B1BB
:1059E0002068406920F0400021684861606B48B140
:1059F000606BFCF719FD20B10020616B0865012583
:105A000000E00025012D0BD10020E084E085E0635B
:105A1000202084F8390084F83A002046FFF75AFF26
:105A2000002070BD704770B50546AC6B0020E08467
:105A3000202084F839002046FFF7F4FF70BD10B530
:105A400004462068C06820F0C0002168C860206853
:105A5000406900F08000D8B12068406920F08000E3
:105A600021684861206B50B1C048216B0865206BEC
:105A7000FCF7DAFCA0B1206B016D884710E0002034
:105A8000E084202084F839002046FFF7CBFF07E0B0
:105A90000020E084202084F839002046FFF7C2FF70
:105AA000002010BD704770B50546AC6B0020E08546
:105AB000202084F83A002046FFF7F4FF70BD10B5AF
:105AC00004462068C06820F490702168C86020688F
:105AD000406920F00100216848612068406900F0B9
